:030000000208EE05
:0C08EE00787FE4F6D8FD75810F02093513
:0C0A720002080014020A0014020E00002A
:100A0900EF24D0601C24FC601224FE601124FE60D7
:100A1900072406700F020A90020A8A020AA2020A31
:050A2900A8120AB4222E
:100A2E00E4F587759850758920758BFD758DFDC21F
:080A3E00ABD28ED2AFD2AC2284
:1008000020A72220A61F20A51C20A419750800756A
:100810000914750A00750B13120A907F107E2712B7
:100820000A5D120AAE20A72B30A62820A52520A4F9
:10083000227F647E00120A5D20A71830A61520A52D
:100840001220A40F750800750907750A00750B19A9
:10085000120A8A20A71F20A61C30A51930A4167FD3
:10086000647E00120A5D20A70C20A60930A5063080
:10087000A403120AA830A71F30A61C20A51920A483
:10088000167F647E00120A5D30A70C30A60920A5F1
:100890000620A403120AA220A72B20A62830A525F3
:1008A00020A4227F647E00120A5D20A71820A615CE
:1008B00030A51220A40F750800750919750A007576
:1008C0000B05120A8A20A72530A62230A51F20A4D6
:1008D0001C7F647E00120A5D30A61230A50F7508D9
:0E08E00000750914750A00750B13120A8A229E
:0B0A7F00120A46120A2E12080080FB2B
:03000B0002097A6D
:10097A00C0E0C0D0758A37758CFF050FE50F70028D
:10098A00050ED39509E50E95085004D2B28002C22D
:10099A00B2D3E50F950BE50E950A5004D2B7800243
:1009AA00C2B7D3E50F9464E50E94004006750E00B5
:0809BA00750F00D0D0D0E0322F
:030023000209C20D
:1009C200C0E0C0F0C083C082C0D075D000C000C0FB
:1009D20001C002C003C004C005C006C007120AAEAF
:1009E200C298AF99750C008F0D120A09D007D00674
:1009F200D005D004D003D002D001D000D0D0D08214
:070A0200D083D0F0D0E032F8
:100A5D00EF1FAC0670011E4C600A7D027CC7DCFEE8
:040A6D00DDFC80EC40
:010A71002262
:100A46005389F0438901758A37758CFFC28DD28C24
:070A5600D2A9D2AFC2B92200
:050ABA00D2B3C2B4221A
:050ABF00C2B3D2B42215
:050AC400C2B3C2B42220
:050AC900D2B3D2B422FB
:050ACE00D2B5C2B62202
:050AD300C2B5D2B622FD
:050AD800C2B5C2B62208
:050ADD00D2B5D2B622E3
:060A8A00120ABA020ACEB6
:060A9000120ABF020AD3A6
:060A9600120ABA020AD8A0
:060A9C00120AC4020ACE9A
:060AA200120ABF020ACE99
:060AA800120AD3020ABA93
:060AAE00120AC4020AD87E
:060AB400120AC9020ADD6E
:1008FA00020A7FE493A3F8E493A34003F68001F28B
:10090A0008DFF48029E493A3F85407240CC8C333FE
:10091A00C4540F4420C8834004F456800146F6DFCD
:10092A00E4800B0102040810204080900A72E47EE1
:10093A00019360BCA3FF543F30E509541FFEE493C2
:10094A00A360010ECF54C025E060A840B8E493A389
:10095A00FAE493A3F8E493A3C8C582C8CAC583CAB4
:10096A00F0A3C8C582C8CAC583CADFE9DEE780BE6C
:010A7E000077
:00000001FF
