:03000000020BF5FB
:0C0BF500787FE4F6D8FD758139020C3CD5
:100DDC00022500190227003B022D0000012400020D
:0B0DEC00220000022B0000022000008B
:100AD800EF24D0B409004003020B67900AF175F0C7
:100AE80003A4C58325F0C58373020B18020B1B02F0
:100AF8000B0C020B44020B12020B67020B15020BC4
:100B080067020B0F020ECD020EC7020EDF020EE5C2
:100B1800020EF1D3E5269464E5259400501EE528DD
:100B28009464E5279400501474142526F526E435BA
:100B380025F52574142528F528E4801FD3E5269487
:100B480014E5259400401874EC2526F52674FF3525
:100B580025F52574EC2528F52874FF3527F5272277
:100E5700E4F58775985053890F438920758BFD7585
:0B0E67008DFDC2ABD28ED2AFD2AC2208
:100B6800C3EF941EEE9400507CEF9400EE94004086
:100B780074E5241460231460391460502403706CE5
:100B8800120EF10523E52370020522D39432E522E3
:100B9800940040587524018030120ECD0523E523BA
:100BA80070020522D3941EE5229400403F7524026A
:100BB8008017120EE50523E52370020522D3945011
:100BC800E52294004026752403E4801C120EEB05F0
:100BD80023E52370020522D39414E5229400400CE7
:0D0BE800E4F5248003E4F524F522F5232232
:100C8100E4F52FF530120E72120E89120E577FE81D
:100C91007E03120E9F1208000521E5217002052036
:100CA100C39432E52094004008E4F520F521120EAA
:100CB100BF120F248E2F8F30C3E530941EE52F9481
:100CC10000500FE5309400E52F94004005120B68A9
:050CD100800312097A06
:100CD600E4F531C3E531940A7480948050B205314D
:020CE60080F19B
:03002300020D4883
:100D4800C0E0C0F0C083C082C0D075D000C000C071
:100D580001C002C003C004C005C006C00730980C1B
:100D6800AF997529008F2A120AD8C298309902C201
:100D780099D007D006D005D004D003D002D001D036
:0C0D880000D0D0D082D083D0F0D0E03278
:03000B00020D944F
:100D9400C0E0C0D0758A47758CFF052EE52E700221
:100DA400052DD39526E52D95255004D2B28002C297
:100DB400B2D3E52E9528E52D95275004D2B78002AD
:100DC400C2B7D3E52E9464E52D94004006752D003A
:080DD400752E00D0D0D0E032F2
:100E9F00EF1FAC0670011E4C600A7D027CC7DCFEA2
:040EAF00DDFC80ECFA
:010EB300221C
:100E72005389F0438901758A47758CFFC28DD28CE4
:070E8200D2A9D2AFC2B922D0
:050EF700D2B4C2B322D9
:050EFC00C2B4D2B322D4
:050F0100C2B4C2B322DE
:050F0600D2B4D2B322B9
:050F0B00D2B6C2B522C0
:050F1000C2B6D2B522BB
:050F1500C2B6C2B522C6
:050F1A00D2B6D2B522A1
:060EC700120EF7020F0BF2
:060ECD00120EFC020F10E2
:060ED300120EF7020F15DC
:060ED900120F01020F0BD5
:060EDF00120EFC020F0BD5
:060EE500120F10020EF7CF
:060EEB00120F01020F15B9
:060EF100120F06020F1AA9
:10097A0020A73120A62E20A52B20A42820A3257F3E
:10098A00647E00120E9F20A71B20A61820A5152002
:10099A00A41220A30F75250075261975270075283E
:1009AA003A120EC730A73130A62E30A52B30A42814
:1009BA0030A3257F647E00120E9F30A71B30A61835
:1009CA0030A51530A41230A30F75250075261975A8
:1009DA00270075283A120EC720A73130A62E20A567
:1009EA002B20A42820A3257F647E00120E9F20A717
:1009FA001B30A61820A51520A41220A30F752500C8
:100A0A00752619752700752819120ED920A72E20C8
:100A1A00A62B20A52830A42530A3227F647E0012AD
:100A2A000E9F20A71820A61520A51230A40F752501
:100A3A0000752619752700752819120EE530A72E9C
:100A4A0030A62B20A52820A42520A3227F647E007F
:100A5A00120E9F30A61820A51520A41220A30F75E8
:100A6A002500752619752700752819120EDF20A78B
:100A7A003120A62E20A52B30A42820A3257F647E12
:100A8A0000120E9F20A71B20A61820A51530A4121D
:100A9A0020A30F75250075261975270075281912C8
:100AAA000ED320A72820A62530A52220A41F20A3E4
:100ABA001C7F647E00120E9F30A61230A50F75258A
:0E0ACA000075261975270075283A120EC722EE
:100DF700021D000001100004150000000004190086
:100E0700000000040C00000000011F000411000096
:080E17000000040800000000C7
:040F1F007F06DFFE6C
:010F230022AB
:0B0EB400D2A1120F1F120F1FC2A122BB
:100E8900E4F5C875CBFC75CA6675CDFC75CC66D220
:060E9900ADD2AFD2CA2267
:10080000AF14AE13AD12AC118F358E348D338C32E4
:10081000E51014605414606E1470030208CF147055
:10082000030208FD24046003020979E51F70030236
:02083000097944
:10083200C3E535950BFFE534950AFEE5339509FDD1
:10084200E5329508FCE47B3CFAF9F8D3120D374007
:1008520003020979751001E4F51F85350B85340A09
:0608620085330985320810
:1008680022120EB4E4F518F517F516F515F51CF572
:100878001BF51AF519751002E53524058037AF0FF9
:10088800AE0EAD0DAC0CAB35AA34A933A832D312D9
:100898000D374008E4F510F51DF51E2220A00302CF
:1008A80009798535188534178533168532157510FD
:1008B80003E535241AF50FE43534F50EE43533F540
:1008C8000DE43532F50C22AF0FAE0EAD0DAC0CAB0E
:1008D80035AA34A933A832D3120D37400280063026
:1008E800A00302097985351C85341B85331A8532A6
:1008F8001975100422E4FFFEFDFCAB18AA17A9160F
:10090800A815D3120D374061AF18AE17AD16AC1548
:0E091800AB1CAA1BA91AA819D3120D37404B0D
:10092600E51C9518F539E51B9517F538E51A951662
:10093600F537E5199515F536E47F11FEFDFCAB3963
:10094600AA38A937A836120CE88E1D8F1ED3E51ECD
:1009560094C2E51D94014006751D01751EC2C3E5CE
:090966001E9402E51D94005007E7
:0A096F008000E4F51DF51EE4F5100C
:01097900225B
:080EBF00E5107003751F01220C
:050F2400AE1DAF1E220E
:03002B00020E20A2
:100E2000C0E0C0D075D000C004C005C006C007C275
:100E3000CFAF14AE13AD12AC11EF2401F514E43EA4
:100E4000F513E43DF512E43CF511D007D006D005CA
:070E5000D004D0D0D0E03245
:100C0100020C81E493A3F8E493A34003F68001F27C
:100C110008DFF48029E493A3F85407240CC8C333F4
:100C2100C4540F4420C8834004F456800146F6DFC3
:100C3100E4800B0102040810204080900DDCE47E6A
:100C4100019360BCA3FF543F30E509541FFEE493B8
:100C5100A360010ECF54C025E060A840B8E493A37F
:100C6100FAE493A3F8E493A3C8C582C8CAC583CAAA
:100C7100F0A3C8C582C8CAC583CADFE9DEE780BE62
:010E1F0000D2
:100CE800E88FF0A4CC8BF0A42CFCE98EF0A42CFCAB
:100CF8008AF0EDA42CFCEA8EF0A4CDA8F08BF0A429
:100D08002DCC3825F0FDE98FF0A42CCD35F0FCEB87
:100D18008EF0A4FEA9F0EB8FF0A4CFC5F02ECD394C
:0F0D2800FEE43CFCEAA42DCE35F0FDE43CFC22B9
:100D3700EB9FF5F0EA9E42F0E99D42F0E89C45F012
:010D47002289
:00000001FF
