:03000000020800F3
:0C080000787FE4F6D8FD758111020847EE
:0C0925000A083F065B4F666D7D077F6F80
:10091000EF1FAC0670011E4C600A7D027CC7DCFE36
:04092000DDFC80EC8E
:0109240022B0
:10088C00EF14B4080050549008A175F003A4C5836C
:10089C0025F0C583730208B90208BD0208C5020819
:1008AC00C90208D10208D50208DD0208E1D2A280F3
:1008BC0002C2A2D2A3D2A48022D2A28002C2A2C21D
:1008CC00A3D2A48016D2A28002C2A2D2A3C2A480B8
:1008DC000AD2A28002C2A2C2A3C2A474082DF8E656
:0D08EC00F5807F017E00120910E4F58022E6
:1008F9007D017F0112088C7D027F0212088C7D0325
:070909007F0312088C80E956
:10080C000208F9E493A3F8E493A34003F68001F201
:10081C0008DFF48029E493A3F85407240CC8C333ED
:10082C00C4540F4420C8834004F456800146F6DFBC
:10083C00E4800B0102040810204080900925E47E1E
:10084C00019360BCA3FF543F30E509541FFEE493B1
:10085C00A360010ECF54C025E060A840B8E493A378
:10086C00FAE493A3F8E493A3C8C582C8CAC583CAA3
:10087C00F0A3C8C582C8CAC583CADFE9DEE780BE5B
:0109310000C5
:00000001FF
