:030000000201F406
:0C01F400787FE4F6D8FD75811702023B0D
:0C000E0002080019020A0038020E00006F
:10034500EF24D0601C24FC601224FE601124FE60A2
:10035500072406700F0203C30200030203D502033C
:05036500DB1203E7229A
:10036A00E4F58775985053890F438920758BFD757D
:0B037A008DFDC2ABD28ED2AFD2AC2200
:1003B10012038512036A12030F7F017E0012039C50
:0203C10080F4C6
:03000B000202806E
:10028000C0E0C0D0758A47758CFF050FE50F70027E
:10029000050ED39509E50E95085004D2B28002C22E
:1002A000B2D3E50F950BE50E950A5004D2B7800244
:1002B000C2B7D3E50F9464E50E94004006750E00B6
:0802C000750F00D0D0D0E03230
:030023000202C80E
:1002C800C0E0C0F0C083C082C0D075D000C000C0FC
:1002D80001C002C003C004C005C006C0071203E184
:1002E800C298AF99750C008F0D120345D007D00640
:1002F800D005D004D003D002D001D000D0D0D08215
:07030800D083D0F0D0E032F9
:10039C00EF1FAC0670011E4C600A7D027CC7DCFEB0
:0403AC00DDFC80EC08
:0103B000222A
:100385005389F0438901758A47758CFFC28DD28CDC
:07039500D2A9D2AFC2B922C8
:0503ED00D2B3C2B422EE
:0503F200C2B3D2B422E9
:0503F700C2B3C2B422F4
:0503FC00D2B3D2B422CF
:05040100D2B5C2B622D5
:05040600C2B5D2B622D0
:05040B00C2B5C2B622DB
:05041000D2B5D2B622B6
:060003001203ED020401EE
:0603C3001203F202040621
:0603C9001203ED02040B1B
:0603CF001203F702040115
:0603D5001203F202040114
:0603DB001204060203ED0E
:0603E1001203F702040BF9
:0603E7001203FC020410E9
:08001A000212000002100000B8
:040415007F08DFFE7F
:0104190022C0
:10015400E4F517F516F515F514F582F583FDFCD2D3
:10016400A1120415120415C2A120A0151204150D24
:10017400BD00010CD3ED94F4EC940140ECE4FEFFDB
:1001840022E4F517F516F515F51430A0321204150E
:10019400E5172401F517E43516F516E43515F515BC
:1001A400E43514F514E47F147E05FDFCAB17AA16A0
:1001B400A915A814D312014340D07E017FC222E4C2
:1001C4007F14FEFDFCAB17AA16A915A8141200266D
:1001D400E47B3AFAF9F81200B18E838F82D3E58278
:0F01E40094C2E583940140039001C2AE83AF82C1
:0101F30022E9
:10030F000511E51170020510C39464E510940040C7
:10031F0024E4F510F5111201548E128F13C3E51357
:10032F00940AE5129400500DE5139400E512940021
:05033F0040031203E77A
:010344002296
:100200000203B1E493A3F8E493A34003F68001F260
:1002100008DFF48029E493A3F85407240CC8C333FF
:10022000C4540F4420C8834004F456800146F6DFCE
:10023000E4800B010204081020408090000EE47E50
:10024000019360BCA3FF543F30E509541FFEE493C3
:10025000A360010ECF54C025E060A840B8E493A38A
:10026000FAE493A3F8E493A3C8C582C8CAC583CAB5
:10027000F0A3C8C582C8CAC583CADFE9DEE780BE6D
:0100220000DD
:10002600E88FF0A4CC8BF0A42CFCE98EF0A42CFC79
:100036008AF0EDA42CFCEA8EF0A4CDA8F08BF0A4F7
:100046002DCC3825F0FDE98FF0A42CCD35F0FCEB56
:100056008EF0A4FEA9F0EB8FF0A4CFC5F02ECD391B
:0F006600FEE43CFCEAA42DCE35F0FDE43CFC2288
:1000750075F008758200EF2FFFEE33FECD33CDCC42
:1000850033CCC58233C5829BED9AEC99E5829840C5
:100095000CF582EE9BFEED9AFDEC99FC0FD5F0D6A2
:1000A500E4CEFBE4CDFAE4CCF9A88222B800C1B9CC
:1000B5000059BA002DEC8BF084CFCECDFCE5F0CB0A
:1000C500F97818EF2FFFEE33FEED33FDEC33FCEB43
:1000D50033FB10D703994004EB99FB0FD8E5E4F9FE
:1000E500FA227818EF2FFFEE33FEED33FDEC33FCEB
:1000F500C933C910D7059BE99A4007EC9BFCE99ADF
:10010500F90FD8E0E4C9FAE4CCFB2275F010EF2F23
:10011500FFEE33FEED33FDCC33CCC833C810D70723
:100125009BEC9AE899400AED9BFDEC9AFCE899F85E
:0E0135000FD5F0DAE4CDFBE4CCFAE4C8F922F1
:10014300EB9FF5F0EA9E42F0E99D42F0E89C45F012
:010153002289
:00000001FF
