:030000000208767D
:0C087600787FE4F6D8FD75810802088D3B
:0B088200D288C289D2A8D2AFC2B8222F
:05088D0012088280FE4C
:030003000208925E
:03089200C2A032CF
:10080000E4F50820B1137F14FE12086130B1FD7FBA
:10081000147E0012086175080120B0147F147E0058
:1008200012086130B0FD7F147E0012086175080265
:1008300020B2147F147E0012086130B2FD7F147E56
:100840000012086175080320B3147F147E0012089B
:100850006130B3FD7F147E00120861750804AF0893
:010860002275
:10086100EF1FAC0670011E4C600A7D027CC7DCFEE6
:04087100DDFC80EC3E
:010875002260
:00000001FF
