:03000000020800F3
:0C080000787FE4F6D8FD75810D020847F2
:0C09B200020C05DC020A000F0208000025
:10099300758901758CFF758AA4D2A9D2AFD28C2236
:1008F3007E007C077DD012088C7C007DB412089E9C
:10090300EF24F4F50DEE3401F50CC3E50D94F4E595
:100913000C94015006750C01750DF4D3E50D94C4C8
:0D092300E50C94094006750C09750DC42201
:07096C001208F37F147E0066
:10097300E4FDFCC3ED9FEC9E5015E4FBFA0BBB00BA
:0F098300010AEB64724A70F50DBD00010C80E4AF
:010992002242
:0F09A300120993E4FF12096C7FB412096C80F4FF
:03000B00020930B7
:04093000C0E0C0D093
:10093400758CFF758AA40509E50970020508640130
:1009440045087002D2A0E509B50B07E508B50A020F
:10095400C2A0C3E50994C8E50894004006750800E0
:0309640075090012
:05096700D0D0D0E03209
:10080C000209A3E493A3F8E493A34003F68001F256
:10081C0008DFF48029E493A3F85407240CC8C333ED
:10082C00C4540F4420C8834004F456800146F6DFBC
:10083C00E4800B01020408102040809009B2E47E91
:10084C00019360BCA3FF543F30E509541FFEE493B1
:10085C00A360010ECF54C025E060A840B8E493A378
:10086C00FAE493A3F8E493A3C8C582C8CAC583CAA3
:10087C00F0A3C8C582C8CAC583CADFE9DEE780BE5B
:0109BE000038
:10088C00EF8DF0A4A8F0CF8CF0A428CE8DF0A42E80
:02089C00FE223A
:10089E00BC000BBE0029EF8DF084FFADF022E4CC3E
:1008AE00F875F008EF2FFFEE33FEEC33FCEE9DEC07
:1008BE00984005FCEE9DFE0FD5F0E9E4CEFD22ED4D
:1008CE00F8F5F0EE8420D21CFEADF075F008EF2F97
:1008DE00FFED33FD4007985006D5F0F222C398FD88
:0508EE000FD5F0EA2225
:00000001FF
